:100000000C9446000C9465000C9465000C946500FB
:100010000C9465000C9465000C9465000C946500CC
:100020000C9465000C9465000C9465000C946500BC
:100030000C9429050C9465000C9465000C946500E3
:100040000C9465000C9465000C9465000C9465009C
:100050000C9465000C9465000C9465000C9465008C
:100060000C9465000C9465000C9465000C9465007C
:100070000C9465000C9465000C9465000C9465006C
:100080000C9465000C9465000C94650011241FBE4F
:10009000CFEFD0E1DEBFCDBF11E0A0E0B1E0ECE8F2
:1000A000F2E100E00BBF02C007900D92AC36B10741
:1000B000D9F711E0ACE6B1E001C01D92AA37B10753
:1000C000E1F70E9400050C9444090C940000AA9AE0
:1000D0008FE891E00197F1F700C0000083B3AA9880
:1000E00082958F7090E008959FE094BB826085BBFD
:1000F0000E9467000895EF92FF920F931F93CF9392
:10010000DF938C010E947400EC01C295D295D07FE0
:10011000DC27C07FDC27C8010E947400C82BD92BC4
:100120007E018C2F9F2DDF91CF911F910F91FF901A
:10013000EF90089580E090E00E947B0087FDFACF69
:1001400008952FEF24BB82959295907F9827807F0A
:100150009827862B85BB0E94670008950F931F93F5
:10016000CF93DF93EC018B019595879595958795B6
:1001700095958795959587950E94A100CE01B80128
:100180000E94A1000E949A00DF91CF911F910F91D0
:10019000089583E090E060E070E00E94A1008FE1AC
:1001A0009EE40197F1F700C0000083E090E060E07A
:1001B00070E00E94A1008FE19EE40197F1F700C07A
:1001C000000083E090E060E070E00E94A1008FE119
:1001D0009EE40197F1F700C0000082E090E060E04B
:1001E00070E00E94A1008FE19EE40197F1F700C04A
:1001F00000008CE290E060E070E00E94AE0088E0D9
:1002000090E060E070E00E94AE0081E090E060E08D
:1002100070E00E94AE0086E090E060E070E00E9436
:10022000AE0008950F931F930E947B00082F192F93
:100230000E949A00802F912F1F910F910895F8949A
:1002400082B1806382B91C981D9A8FB58C7F8FBD57
:100250008EB588608EBD8EB58F7E8EBD87B780616E
:1002600087BF80E197E29BBD8ABD8EB585608EBD5C
:10027000D098D298D498D69A0E94C9008CE090E089
:1002800060E070E00E94AE0081E090E060E070E02D
:100290000E94AE0081E090E00E941B082FEF8F3F8C
:1002A000920731F481E090E060E070E00E94210864
:1002B0000895AF92BF92CF92DF92EF92FF920F9389
:1002C0001F93CF93DF93082F192FB62EA72E7A01F5
:1002D000690181E090E060E070E00E94AE001E14D1
:1002E0001F0474F4C0E0D0E0F80181918F0190E028
:1002F00061E070E00E94AE002196CE15DF05A4F308
:10030000C8E2D0E0CE19DF091C161D066CF400E02F
:1003100010E084E190E060E070E00E94AE000F5FCA
:100320001F4F0C171D07ACF31C141D0484F40B2D78
:100330001A2DC0E0D0E0F80181918F0190E061E0DA
:1003400070E00E94AE002196CC15DD05A4F3DF918C
:10035000CF911F910F91FF90EF90DF90CF90BF90C2
:10036000AF90089510926D0110926C0110926F0180
:1003700010926E011092770110927601109279011D
:10038000109278011092750110927401C89906C0FC
:1003900081E090E090936D0180936C01C99906C053
:1003A00081E090E090936F0180936E01CA9906C03E
:1003B00081E090E09093770180937601CB9906C01D
:1003C00081E090E09093790180937801CC9906C008
:1003D00081E090E090937501809374010895DF931C
:1003E000CF93CDB7DEB7A0970FB6F894DEBF0FBEA0
:1003F000CDBFDE011196E0E0F1E08FE001900D92BB
:100400008150E1F7DE015096EFE0F1E081E10190EB
:100410000D928150E1F7CE010196BE01605F7F4FE2
:100420004EE050E020E130E00E9459010E94B2010C
:1004300080917801909179018130910559F482E0A1
:1004400090E090937101809370018CB59DB50E94EE
:10045000B7050DC080916E0190916F0181309105BB
:1004600029F783E090E09093710180937001A0964A
:100470000FB6F894DEBF0FBECDBFCF91DF910895C8
:10048000DF92EF92FF920F931F93DF93CF93CDB73D
:10049000DEB7A0970FB6F894DEBF0FBECDBFDC016C
:1004A000FE0131967F018E010F5E1F4FDD90D192CC
:1004B000E017F107D9F7DC015096FE017196C701EC
:1004C00080960D910193E817F907D9F712161306D4
:1004D0007CF4FA01E295F295F07FFE27E07FFE279B
:1004E0006E0F7F1FFE01E60FF71F8FE481830EC0A2
:1004F000FA01E295F295F07FFE27E07FFE276E0F6E
:100500007F1FFE01E60FF71F8FE68183CE01019664
:10051000BE016F5E7F4F40E150E020E130E00E947D
:100520005901A0960FB6F894DEBF0FBECDBFCF9194
:10053000DF911F910F91FF90EF90DF9008958F92C0
:100540009F92AF92BF92CF92DF92EF92FF920F9362
:100550001F93CF93DF93EC016B017A0159018091D6
:10056000720190917301009709F48CC0FE013F96CF
:100570008FE090E0229121830197E1F7882499246C
:10058000689484F88C0E9D1EFE017F96C401229112
:100590002183E817F907D9F780E28883888B0E94C6
:1005A000B2056FE070E00E943D058130910519F4BD
:1005B0008CE3888305C08230910511F48CE3888B2D
:1005C0000E94B2052981203251F5D40111962C9157
:1005D0001197203221F52A81203209F512962C91AB
:1005E00012972032E1F467E070E00E943D05009729
:1005F00059F48B818D3521F4F40183818B3579F0A9
:100600008DE58883888B0BC08130910519F48DE5C9
:10061000888305C08230910511F48DE5888BD70160
:10062000ED91FC91E295F295F07FFE27E07FFE27A9
:10063000EC0FFD1FD6018D919C911197E80FF91FCA
:1006400080818C3361F48AB59BB5B3E0893E9B070A
:1006500030F08AB59BB5845F91409BBD8ABDF501A2
:100660008081918199231CF0019791838083D80127
:100670008D919C91119701968D939C93109273018B
:1006800010927201F7018081918182959295907FFD
:100690009827807F9827C80FD91FD6018D919C91EC
:1006A0001197C80FD91F88818D3561F4F5018081BC
:1006B00091811816190634F081E090E09093710151
:1006C00080937001DF91CF911F910F91FF90EF9078
:1006D000DF90CF90BF90AF909F908F9008958091C2
:1006E0006C0190916D018130910521F4FB01118223
:1006F00010820CC080917401909175018130910538
:1007000029F481E090E0FB01918380838091760160
:10071000909177018130910561F4FA018081918196
:10072000FFEF8F3F9F0729F484E090E0FA01918367
:1007300080830895181619066CF420E030E0EFE984
:10074000FFE03197F1F700C000002F5F3F4F2817FF
:100750003907ACF308950F931F93DF93CF93CDB771
:10076000DEB760970FB6F894DEBF0FBECDBF81E055
:1007700090E00E941B08DE011196E5E2F1E02AE01C
:1007800001900D922150E1F72DB73EB7285030402F
:100790000FB6F8943EBF0FBE2DBFEDB7FEB7319632
:1007A0008E01055F1F4FADB7BEB712961C930E9317
:1007B000119726E030E03383228320E231E0358355
:1007C0002483978386830E94CD052DB73EB7285F8B
:1007D0003F4F0FB6F8943EBF0FBE2DBFCE0101961E
:1007E000B80149E050E025E030E00E94590181E085
:1007F00090E0909371018093700180ED97E00E94EA
:100800009A0360960FB6F894DEBF0FBECDBFCF91AE
:10081000DF911F910F9108956F927F928F929F9217
:10082000AF92BF92CF92DF92EF92FF920F931F93FE
:10083000DF93CF93CDB7DEB7C654D0400FB6F89450
:10084000DEBF0FBECDBF8FE090E09A83898381E049
:1008500090E09C838B831E821D8218861F82DE019E
:100860001996E7E4F1E080E201900D928150E1F702
:1008700080E197E29BBD8ABD78940F2EF3E0CF2EE6
:10088000DD24F02DCC0EDD1E0F2EF5E0AF2EBB24A7
:10089000F02DAC0EBD1E7E010894E11CF11C0F2E44
:1008A000F9E08F2E9924F02D8C0E9D1E0F2EF7E06F
:1008B0006F2E7724F02D6C0E7D1E0E94B201C701B1
:1008C000B601A5010E946F0382E390E00E949A03A3
:1008D000C401B701A601950183010E949F026981AD
:1008E0007A814B815C812D813E81C4010E9440024E
:1008F000809170019091710181309105F1F6DE01D6
:100900009F96EFE2F1E08BE001900D928150E1F7CC
:10091000DE01DA96EAE3F1E088E001900D92815081
:10092000E1F785E0FE01EE5BFF4FDF011D928A9546
:10093000E9F78DB79EB708970FB6F8949EBF0FBE24
:100940008DBFEDB7FEB731960F2EF9E2EF2EFF24E3
:10095000F02DEC0EFD1EADB7BEB71296FC92EE92D6
:10096000119786E090E09383828380E291E0958303
:1009700084838F819885978386830E94CD058DB768
:100980009EB708960FB6F8949EBF0FBE8DBF8E011E
:10099000065C1F4FC801B7010E94C205CE018F96A9
:1009A000B8014AE050E02CE030E00E94590181E0BB
:1009B00090E00E941B086F8178858617970720F4C6
:1009C00081E090E00E94210818861F8280ED97E068
:1009D0000E949A03CA5BDF4F0FB6F894DEBF0FBECA
:1009E000CDBFCF91DF911F910F91FF90EF90DF90DE
:1009F000CF90BF90AF909F908F907F906F90089511
:100A00000E941F0181E090E090937101809370013A
:100A1000F89480917001909171018130910511F4E9
:100A20000E94EF01809170019091710182309105D7
:100A300031F410927301109272010E940C048091A3
:100A40007001909171018330910511F70E94AB0301
:100A5000DFCF1F920F920FB60F9211248F939F93A7
:100A600081E090E090937301809372019F918F9148
:100A70000F900FBE0F901F90189597FB092E072619
:100A80000AD077FD04D00CD006D000201AF470955F
:100A900061957F4F0895F6F7909581959F4F089542
:100AA000AA1BBB1B51E107C0AA1FBB1FA617B70794
:100AB00010F0A61BB70B881F991F5A95A9F78095B0
:100AC0009095BC01CD010895AF92BF92CF92DF9275
:100AD000EF92FF920F931F93CF93DF93EC01688106
:100AE00079818A819B81611571058105910521F4C8
:100AF00064E279ED8BE597E02DE133EF41E050E0E2
:100B00000E94070979018A0127EA31E440E050E0B8
:100B10000E94E8085B016C01C801B7012CEE34EFBC
:100B20004FEF5FEF0E94E8086A0D7B1D8C1D9D1D35
:100B300097FF04C06150704080409048688379837B
:100B40008A839B837F77CB01DF91CF911F910F9198
:100B5000FF90EF90DF90CF90BF90AF9008950E94EC
:100B60006405089587E691E00E9464050895A0E079
:100B7000B0E08093670190936801A0936901B093FE
:100B80006A010895FB01DC010D900020E9F711973F
:100B900001900D920020E1F708950F931F93DF93CA
:100BA000CF93CDB7DEB72E970FB6F894DEBF0FBE4A
:100BB000CDBF0D891E898F89988D26E02C831A83DD
:100BC000098397FF02C080E090E801979E838D83A0
:100BD0009E01255E3F4FCE010196698D7A8DA90158
:100BE0000E940B064D815E8157FD0AC02F8138851A
:100BF000421753070CF49A01020F131FF8011082D9
:100C00002E960FB6F894DEBF0FBECDBFCF91DF9109
:100C10001F910F9108952F923F924F925F926F9282
:100C20007F928F929F92AF92BF92CF92DF92EF927C
:100C3000FF920F931F93DF93CF93CDB7DEB72C971F
:100C40000FB6F894DEBF0FBECDBF6C011B018A0149
:100C5000FC0117821682838181FFD1C12E01089485
:100C6000411C511CF6019381F10193FD859193FF85
:100C700081911F01882309F4BEC1853239F493FDA7
:100C8000859193FF81911F01853229F490E0B6018F
:100C90000E943D08E7CFEE24FF2420E02032B0F48C
:100CA0008B3269F08C3228F4803251F0833271F447
:100CB0000BC08D3239F0803349F421602CC02260A2
:100CC000246029C0286027C0206125C027FD2CC0D2
:100CD000382F30533A3098F426FF08C08E2D880FF5
:100CE000E82EEE0CEE0CE80EE30E15C08F2D880FEB
:100CF000F82EFF0CFF0CF80EF30E20620CC08E32A3
:100D000021F426FD78C1206406C08C3611F42068D9
:100D100002C0883649F4F10193FD859193FF8191DA
:100D20001F01882309F0BACF982F9554933018F0FB
:100D30009052933028F40C5F1F4FFFE3F9830DC0EE
:100D4000833631F0833771F0833509F060C022C0FB
:100D5000F801808189830E5F1F4F420171E0A72E49
:100D6000B12C16C062E0662E712C600E711EF80167
:100D70008080918026FF03C06E2D70E002C06FEF6F
:100D80007FEFC4012C870E9432085C0183012C850F
:100D90002F7717C052E0652E712C600E711EF8017E
:100DA0008080918026FF03C06E2D70E002C06FEF3F
:100DB0007FEFC4012C870E9427085C012C852068E6
:100DC000830123FD20C008C080E290E0B6012C879B
:100DD0000E943D08FA942C858F2D90E0A816B90644
:100DE00098F311C0F40127FD859127FF81914F01F0
:100DF00090E0B6012C870E943D082C85F110FA94F2
:100E00000894A108B108A114B10461F7F1C08436B7
:100E100011F0893649F527FF08C0F801608171811A
:100E2000828193810C5F1F4F09C0F801608171813D
:100E3000882777FD8095982F0E5F1F4F4FE6B42EC1
:100E4000B22297FF09C090958095709561957F4F6C
:100E50008F4F9F4FF0E8BF2AA2012AE030E00E94A6
:100E60006908782E741845C0853731F43FEEB32EEB
:100E7000B2222AE030E025C099EFB92EB2228F3697
:100E8000C1F0803720F4883509F0B5C00DC0803737
:100E900021F0883709F0AFC002C020E1B22AB4FEC9
:100EA0000BC084E0B82A08C0B4FE09C0E6E0BE2A40
:100EB00006C028E030E005C020E130E002C020E1BB
:100EC00032E0B7FE08C0F8016081718182819381B0
:100ED0000C5F1F4F07C0F8016081718180E090E0D6
:100EE0000E5F1F4FA2010E946908782E7418FFE759
:100EF000BF22B6FE0BC02EEFB2227E1438F4B4FE31
:100F000007C0B2FC05C08FEEB82202C0A72C01C0FA
:100F1000AE2C8B2D90E0B4FE0DC0FE01E70DF11D4F
:100F20002081203319F4E9EEBE2209C0A394B2FE59
:100F300006C004C086789070009709F0A3948B2CAB
:100F40009924B3FC14C0B0FE0FC0AF1428F4E72CF2
:100F5000EF0CEA18AF2C08C0E72C06C080E290E046
:100F6000B6010E943D08A394AF14C0F304C0AF14AF
:100F700010F4FA1801C0FF2484FE0FC080E390E053
:100F8000B6010E943D0882FE1FC081FE03C088E5B5
:100F900090E010C088E790E00DC0C40186789070A2
:100FA000009791F081FC02C080E201C08BE2B7FCA7
:100FB0008DE290E0B6010E943D0806C080E390E01B
:100FC000B6010E943D08EA947E14C0F37A94F201BF
:100FD000E70DF11D808190E0B6010E943D08772069
:100FE000A9F706C080E290E0B6010E943D08FA949D
:100FF000FF20C1F737CEF6012681378102C02FEFDF
:101000003FEFC9012C960FB6F894DEBF0FBECDBFDF
:10101000CF91DF911F910F91FF90EF90DF90CF90D4
:10102000BF90AF909F908F907F906F905F904F9008
:101030003F902F900895A8E1B0E042E050E00C947A
:10104000C9080196272F0E94D8080C94D708FC01E4
:101050000590615070400110D8F7809590958E0FE3
:101060009F1F0895FC016150704001900110D8F756
:10107000809590958E0F9F1F08950F931F93CF9388
:10108000DF938C01EB018B8181FF1BC082FF0DC0C0
:101090002E813F818C819D812817390764F4E88176
:1010A000F9810193F983E88306C0E885F985802FEB
:1010B0000995009731F48E819F8101969F838E83DD
:1010C00002C00FEF1FEFC801DF91CF911F910F9169
:1010D0000895FA01AA27283051F1203181F1E894CE
:1010E0006F936E7F6E5F7F4F8F4F9F4FAF4FB1E01B
:1010F0003ED0B4E03CD0670F781F891F9A1FA11D16
:10110000680F791F8A1F911DA11D6A0F711D811D16
:10111000911DA11D20D009F468943F912AE0269FDB
:1011200011243019305D3193DEF6CF010895462F3A
:101130004770405D4193B3E00FD0C9F7F6CF462F1B
:101140004F70405D4A3318F0495D31FD4052419384
:1011500002D0A9F7EACFB4E0A69597958795779541
:101160006795BA95C9F700976105710508959B01C8
:10117000AC010A2E06945795479537952795BA9551
:10118000C9F7620F731F841F951FA01D0895DC010E
:10119000CB01FC01E199FECF06C0FFBBEEBBE09A9C
:1011A00031960DB20D9241505040B8F70895262F58
:1011B000E199FECF9FBB8EBBE09A01970DB202165C
:1011C00031F02DBB0FB6F894E29AE19A0FBE089564
:1011D000629FD001739FF001829FE00DF11D649F1B
:1011E000E00DF11D929FF00D839FF00D749FF00DA7
:1011F000659FF00D9927729FB00DE11DF91F639F48
:10120000B00DE11DF91FBD01CF011124089597FB19
:10121000092E05260ED057FD04D014D00AD0001C8C
:1012200038F450954095309521953F4F4F4F5F4F83
:101230000895F6F790958095709561957F4F8F4F43
:101240009F4F0895A1E21A2EAA1BBB1BFD010DC0E2
:10125000AA1FBB1FEE1FFF1FA217B307E407F50766
:1012600020F0A21BB30BE40BF50B661F771F881F42
:10127000991F1A9469F760957095809590959B01D8
:0C128000AC01BD01CF010895F894FFCF30
:10128C0046617374202620467572696F7573003C35
:10129C00486953636F72653C203E506C61793E0027
:1012AC00253035640048692D53636F72653A0047E9
:1012BC00616D65204F766572210073636F72653ABC
:1012CC0020000000000000202020202020202020D2
:1012DC002020202020202020202020202020202002
:0C12EC0020202020202020010000000015
:00000001FF
